:020000040000FA
:0400000034EF00F0E9
:100008005F829DB09EA02AD082A008D000016A2BF2
:10001800050E6A6506D0020EA96F03D0000E000116
:100028006A6F80A807D0692B050E696505D0010E97
:10003800A96F02D0000E696F80A607D0682B050E45
:10004800686505D0030EA96F02D0000E686F010E17
:100058006B6FD80ECF6EEF0ECE6E9E905F92110032
:0400680086EF0EF021
:1010000000253032643A253032642E253032642097
:101010002020202020200054696D65723A20202075
:071020002020202020000029
:101028003F50D96EDA6ADFCFF6FF100EF76E080070
:10103800F550250AD8A411D13F50D96EDA6ADF2AB3
:10104800000E636F000E626F62C066F063C067F0E7
:1010580064696569000E4E6E000E11D066813F50BE
:10106800D96EDA6ADF2A2DD06683F9D76685F7D775
:101078006687F5D76689F3D7000E4E6E010E4D6E62
:1010880020D03F50D96EDA6ADFCFF6FF100EF76E28
:101098000800F550416E426A4250000AD8A4ECD7C5
:1010A8004150200AD8B4E4D7030AD8B4E3D7080AD1
:1010B800D8B4DCD7060AD8B4D1D71D0AD8B4D4D747
:1010C800DBD74D504E10D8B4DCD766B166933F508D
:1010D800D96EDA6ADFCFF6FF100EF76E0800F5500A
:1010E8002A0AD8A418D03F50D96EDA6ADF2A4050AD
:1010F800D96EDA6A020EDF26DF5CD96EDA6ADECFD5
:1011080062F0DECF63F063AF38D06681626D631F33
:10111800D8B0632B32D03F50D96EDA6ADF50086EF0
:1011280003EC0BF008C062F009C063F004D03F5034
:10113800D96EDA6ADF2AD00E416EFF0E426E3F503A
:10114800D96EDA6ADFCFF6FF100EF76E0800F55099
:10115800436E446A4150432642504422445006E1BB
:101168000A0E435CD8B002D0010E01D0000E4F6EBB
:10117800506A4F505010D8A4DAD73F50D96EDA6A67
:10118800DFCFF6FF100EF76E0800F550640AD8B4EA
:101198000CD03F50D96EDA6ADFCFF6FF100EF76E2B
:1011A8000800F550690AD8A432D03F50D96EDA6ADF
:1011B800DF2A4050D96EDA6ADF50DF2ADF2AD96E7B
:1011C800DA6ADECF45F0DDCF46F0000E46BEFF0EF0
:1011D800476E486E496E4A6E4B6E4C6E3EC01BF0B1
:1011E80045C01CF046C01DF047C01EF048C01FF0A7
:1011F80049C020F04AC021F04BC022F04CC023F077
:1012080045EC09F01BC03EF01CC03FF012003F50F7
:10121800D96EDA6ADFCFF6FF100EF76E0800F550C8
:10122800250AD8A411D03F50D96EDA6ADF2A000EF9
:10123800026E250E016E3EC003F041EC0DF0000E6B
:101248003F6E010E3E6E12003F50D96EDA6ADF2AF9
:10125800000E3F6E000E3E6E12003F50D96EDA6AE5
:10126800DFCFF6FF100EF76E0800F550016E026A28
:101278003EC003F041EC0DF03F50D96EDA6ADF2A28
:10128800DED71CC034F01DC035F01EC036F01FC0BC
:1012980037F020C038F021C039F022C03AF023C01E
:1012A8003BF03BAE02D0010E01D0000E326E336A25
:1012B80032503310D8B410D03B1E3A1E391E381E97
:1012C800371E361E351E346C000E35223622372264
:1012D800382239223A223B22000165AF669365BF66
:1012E80005D0655108E16405D8B005D0000E2F6E11
:1012F800010E2E6E04D064C02EF065C02FF062C0BF
:1013080030F063C031F032503310D8A402D066A553
:1013180003D03006D8A03106000E3D6E1F0E3C6E7D
:10132800000E8B6F7AD03C06D8A03D063C506C0F5F
:10133800D96EDA6A34C001F035C002F036C003F065
:1013480037C004F038C005F039C006F03AC007F0DD
:101358003BC008F00A0E096E000E0A6E000E0B6EF6
:10136800000E0C6E000E0D6E000E0E6E000E0F6E4F
:10137800000E106EA1EC0BF001C024F002C025F0A5
:1013880003C026F004C027F005C028F006C029F0E5
:1013980007C02AF008C02BF024C013F026C014F0B0
:1013A8003DEC0EF01350300FDF6E2E06D8A02F063E
:1013B8003006D8A0310634C001F035C002F036C07E
:1013C80003F037C004F038C005F039C006F03AC061
:1013D80007F03BC008F00A0E096E000E0A6E000EF8
:1013E8000B6E000E0C6E000E0D6E000E0E6E000ED3
:1013F8000F6E000E106E5FEC0AF001C034F002C0F0
:1014080035F003C036F004C037F005C038F006C028
:1014180039F007C03AF008C03BF03DBE20D03D503F
:1014280003E13C04D8A01BD03450351036103710D7
:10143800381039103A103B10D8A475D72FBE05D0F4
:101448002F5002E12E04D8B06ED731BE08D03150EB
:1014580003E13004D8A003D0000166B364D732504A
:101468003310D8A403D0000166A515D03C06D8A037
:101478003D0632503310D8A404D0000E2D6E2B0E2A
:1014880003D0000E2D6E2D0E2C6E3C506C0FD96EB5
:10149800DA6A2CC0DFFF1BC00EF03C506C0F0F6ED9
:1014A80030C010F031C011F000EC0DF00EC01BF090
:1014B8000FC01CF01200000E126E10AE12D0101EDB
:1014C8000F1E0E1E0D1E0C1E0B1E0A1E096C000E92
:1014D8000A220B220C220D220E220F221022010EAC
:1014E800126E08AE12D0081E071E061E051E041E28
:1014F800031E021E016C000E022203220422052292
:10150800062207220822010E121A20EE13F0070EF7
:10151800DE6AE806FDE209500A100B100C100D10E7
:101528000E100F101010D8B446D0010E116E0AD04C
:10153800D89009360A360B360C360D360E360F366D
:101548001036112A10AEF4D7D89013361436153643
:1015580016361736183619361A360950015C0A50ED
:1015680002580B5003580C5004580D5005580E5093
:1015780006580F50075810500858D8A011D00950D5
:10158800015E0A50025A0B50035A0C50045A0D506F
:10159800055A0E50065A0F50075A1050085A138011
:1015A800D89010320F320E320D320C320B320A3212
:1015B8000932112EC9D71250D8B410D01A1E191ECC
:1015C800181E171E161E151E141E136C000E14224C
:1015D800152216221722182219221A2213C001F0E6
:1015E80014C002F015C003F016C004F017C005F0CF
:1015F80018C006F019C007F01AC008F01200000E53
:10160800166E000E156E000E0F6E000E0E6E01D0D7
:10161800082A010E146E08C0F6FF100EF76E0800B7
:10162800F550200AD8B418D0F70E0A6EFF0E0B6ECC
:1016380008C0F6FF100EF76E0800F5500C6E0D6A24
:101648000A500C260B500D220D5004E1050E0C5CBF
:10165800D8A002D0000E146E14C010F0116A1050F9
:101668001110D8B407D0D4D7000E0F6E010E0E6E2D
:10167800082A2ED008C0F6FF100EF76E0800F550A5
:101688000A6E0B6A0B50000AD8A422D00A502B0A03
:10169800D8B4EED7060AD8B4E7D71AD015C001F0E7
:1016A80016C002F0000E046E0A0E036EB2EC0EF0C5
:1016B80008C0F6FF100EF76E0800F550015E000E28
:1016C800025A300E0124156E000E0220166ED0D775
:1016D800D00E0A6EFF0E0B6E08C0F6FF100EF76EE6
:1016E8000800F5500C6E0D6A0A500C260B500D229E
:1016F8000D5006E10A0E0C5CD8B002D0010E01D0E4
:10170800000E126E136A12501310D8A4C7D70E50C9
:101718000F10D8A40DD015C00AF016C00BF00A1E81
:101728000B1E0A4A0B2A0AC008F00BC009F0120067
:1017380015C008F016C009F01200000E126E08AEAF
:1017480012D0081E071E061E051E041E031E021EBA
:10175800016C000E0222032204220522062207221F
:101768000822010E126E10AE10D0101E0F1E0E1E93
:101778000D1E0C1E0B1E0A1E096C000E0A220B22DF
:101788000C220D220E220F22102209500A100B10D3
:101798000C100D100E100F101010D8B43CD0010E04
:1017A800116E0AD0D89009360A360B360C360D362B
:1017B8000E360F361036112A10AEF4D70950015CD8
:1017C8000A5002580B5003580C5004580D50055835
:1017D8000E5006580F50075810500858D8A010D06F
:1017E8000950015E0A50025A0B50035A0C50045A11
:1017F8000D50055A0E50065A0F50075A1050085AE5
:10180800D89010320F320E320D320C320B320A32AF
:101818000932112ED3D71250D8B410D0081E071E83
:10182800061E051E041E031E021E016C000E022267
:1018380003220422052206220722082201C001F001
:1018480002C002F003C003F004C004F005C005F0B4
:1018580006C006F007C007F008C008F012009CECAC
:101868000EF09EEC0CF0DFEC0EF0F28CF28ED80E3F
:10187800CF6EEF0ECE6ECD80000E0001A66F000E6B
:10188800A76F000EA86F3F0EA56F170E026E0250CD
:10189800D8A4100E036E010E81EC0DF000016B51FF
:1018A800D8A41FD031D0A62B630EA6652BD0A82BA9
:1018B800000EA66F3F0EA51BA551E2EC0DF03B0EE6
:1018C8000001A8651FD0A72B000EA86F620EA765A0
:1018D80019D004D0000EA66F000EA86F000EA76FD7
:1018E80011D0A9515D6E5E6A5E50000AD8A40AD074
:1018F8005D50010AD8B406D0030AD8B4D4D7010A77
:10190800D8B4E8D7000E6B6F940E556E010E566E64
:10191800A7C057F0586AA8C059F05A6AA6C05BF029
:101928005C6A22EC0EF0940E026E036A020E81ECE1
:101938000DF0B4D73B913B93958095829290898026
:101948006C50F00B08096C6E130E6E6E6C8A340EB8
:10195800026EF20EE82EFED7022EFCD76B806BB01B
:10196800FED7A49E7C0ED6EC0EF0800ED6EC0EF0C0
:10197800380ED6EC0EF0800ED6EC0EF0390ED6EC02
:101988000EF0800ED6EC0EF0170ED6EC0EF0800E90
:10199800D6EC0EF07A0ED6EC0EF0800ED6EC0EF0E9
:1019A8005E0ED6EC0EF0800ED6EC0EF06B0ED6EC7A
:1019B8000EF0800ED6EC0EF00C0ED6EC0EF0800E6B
:1019C800D6EC0EF0010ED6EC0EF0800ED6EC0EF032
:1019D800060ED6EC0EF0800ED6EC0EF0020ED6EC0B
:1019E8000EF06B846BB4FED7340E026EF20EE82E46
:1019F800FED7022EFCD71200000166A106D00FC048
:101A080009F00EC00AF056EC0EF011BE05D010C059
:101A180015F011C016F004D0000E166E000E156EEB
:101A2800000E146E000E136E0AD0000E026E200E09
:101A3800016E0EC003F041EC0DF0134A142A155044
:101A4800135C1450800A126E1650800A1258D8A0DF
:101A5800ECD7000166B106D00FC009F00EC00AF03D
:101A680056EC0EF00FC001F0C5EC0EF01550012435
:101A78000E6E165002200F6E12000350D8B403D019
:101A88000350D8A404D00150E6EC0EF01200035025
:101A9800D96EDA6A030ED926DE50DE10D8B414D017
:101AA8000350D96EDA6A030ED9260350E16EE26A52
:101AB800010EE126DE50E65CE650800A086EDE5034
:101AC800800A0858D8B012000350D96EDA6A010E9D
:101AD800D926DF50046E0350D96EDA6ADF50042429
:101AE800D96EDA6A01C0DFFF0350D96EDA6A010ED7
:101AF800D926DE2A000EDD221200066E6B806BB03E
:101B0800FED7A49E7C0ED6EC0EF0800ED6EC0EF01E
:101B18000604D8A404D0800ED6EC0EF007D0020E2E
:101B28000618D8A403D0C00ED6EC0EF0400ED6ECA2
:101B38000EF0000E076E07500224046E000E0320FC
:101B4800056E04C0F6FF05C0F7FF000EF86E0F0E15
:101B5800F76403D00800F55005D0F6CFE1FFF7CFC2
:101B6800E2FFE750D6EC0EF0072A0F0E0764E3D722
:101B78006B846BA41200FDD752C054F0000E616F45
:101B8800000E606F0DD051C03EF0540E3F6E53C032
:101B980040F014EC08F03E50000160273F506123EC
:101BA80054C0F6FF100EF76E0800F5500009D8A4CF
:101BB800EAD760C051F061C052F01200016E011EF8
:101BC80001A002D08C8401D08C9401A202D08C8612
:101BD80001D08C9601A402D08B8801D08B9801A6E5
:101BE80002D08C8801D08C9801A802D08C8A01D0B0
:101BF8008C9A01AA02D08C8C12008C9C1200010EC7
:101C0800076E200E01180210D8B414D0F70E036E18
:101C1800FF0E046E01C005F002C006F00350052651
:101C280004500622065004E1050E055CD8A002D037
:101C3800000E076E07C001F0026A1200570E8E6F81
:101C480055C08FF0000E916F000E906F000E936FCD
:101C5800000E926F8F0E516E56C052F08E0E536E5C
:101C6800C0EC0DF055509025D96EDA6A000EDF6E83
:101C7800120014BE05D0145010E11304D8B00DD0D2
:101C880013C015F014C016F0151E161E154A162A94
:101C980015C013F016C014F0120013C013F014C0CE
:101CA80014F01200000E0D6E000E0C6E09D00BC061
:101CB80001F0026A0AC003F041EC0DF00C4A0D2A4B
:101CC80009500C24D96EDA6ADF500B6E0B50D8B469
:101CD8001200EDD7D00E036EFF0E046E01C005F0A2
:101CE80002C006F00350052604500622065006E1FD
:101CF8000A0E055CD8B002D0010E01D0000E016EAC
:101D0800026A1200CE0EF66E1D0EF76E000EF86E09
:101D18000900F5CFA9F000EE60F02C0EEE6AE80697
:101D2800FDE15F905F92000EF86E000133EF0CF05A
:101D3800000E0F01386F000E3A6F9594959694989F
:101D48009598959A959C92889286928494808C8492
:101D58008C868B888C888C8A8C8C120001500302AC
:101D6800F3CF05F0F4CF06F001500402F350062635
:101D780002500302F350062605C001F006C002F027
:101D8800120001C003F001D0012A0150D96EDA6AAD
:101D9800DF50D8A4F9D70350015C016E026A01BE76
:101DA80002061200016E01C06FFF6DB0FED7A4AE2F
:101DB800FED7A49E12003F0ECD16300ECD129D8088
:071DC8009E901200120001C1
:020000040020DA
:08000000FFFFFFFFFFFFFFFF00
:020000040030CA
:0E000000FF331F3CFFBF85FF0FC00FE00F4016
:00000001FF
