:020000040000FA
:04000000B7EF10F056
:101000000020202020202020202020202020202000
:1010100020004D6563686C6162206A6520626F7AAA
:10102000692100506F74313A202564205B6D565D54
:101030000A00506F74323A20256400001FC037F058
:1010400020C038F021C039F022C03AF023C03BF074
:1010500024C03CF025C03DF026C03EF03EBE33EF3C
:1010600008F036EF08F0010E37EF08F0000E356E8D
:10107000366A35503610D8B440EF08F042EF08F029
:1010800052EF08F03E1E3D1E3C1E3B1E3A1E391E0E
:10109000381E376C000E382239223A223B223C227D
:1010A0003D223E22000165BF58EF08F05AEF08F0DC
:1010B0005BEF08F0669365BF68EF08F0655106E1E5
:1010C0006405D8B066EF08F068EF08F06EEF08F03E
:1010D000000E326E010E316E72EF08F064C031F016
:1010E00065C032F062C033F063C034F03550361062
:1010F000D8A47DEF08F07FEF08F086EF08F066A532
:1011000084EF08F086EF08F089EF08F03306D8A0E6
:101110003406000E406E1F0E3F6E000E876F0DEFFF
:1011200009F03F06D8A04006680E3F24D96E000E95
:101130004020DA6E37C001F038C002F039C003F049
:101140003AC004F03BC005F03CC006F03DC007F0DB
:101150003EC008F00A0E096E000E0A6E000E0B6EFD
:10116000000E0C6E000E0D6E000E0E6E000E0F6E59
:10117000000E106EE0EC0BF001C027F002C028F06A
:1011800003C029F004C02AF005C02BF006C02CF0E3
:1011900007C02DF008C02EF027C013F029C014F0AE
:1011A0003AEC10F01350300FDF6E3106D8A0320643
:1011B0003306D8A0340637C001F038C002F039C079
:1011C00003F03AC004F03BC005F03CC006F03DC05F
:1011D00007F03EC008F00A0E096E000E0A6E000EFF
:1011E0000B6E000E0C6E000E0D6E000E0E6E000EDD
:1011F0000F6E000E106E69EC0AF001C037F002C0ED
:1012000038F003C039F004C03AF005C03BF006C026
:101210003CF007C03DF008C03EF040BE18EF09F0BA
:10122000405008E13F04D8A018EF09F01AEF09F088
:101230004BEF09F03750381039103A103B103C1082
:101240003D103E10D8A427EF09F029EF09F091EFE7
:1012500008F032BE36EF09F0325006E13104D8B062
:1012600034EF09F036EF09F091EF08F034BE41EFAA
:1012700009F0345008E13304D8A041EF09F043EFFE
:1012800009F04BEF09F0000166B349EF09F04BEFAD
:1012900009F091EF08F035503610D8A452EF09F05C
:1012A00054EF09F05CEF09F0000166A55AEF09F070
:1012B0005CEF09F07AEF09F03F06D8A04006355000
:1012C0003610D8A466EF09F068EF09F06EEF09F068
:1012D000000E306E2B0E2F6E72EF09F0000E306E86
:1012E0002D0E2F6E680E3F24D96E000E4020DA6E50
:1012F0002FC0DFFF1DC012F01EC013F0680E3F2488
:10130000146E000E4020156E33C016F034C017F076
:101310006BEC0EF012C01DF013C01EF0120043C0A3
:10132000D9FF44C0DAFFDECFF6FFDDCFF7FF0800BC
:10133000F550250AD8A49FEF09F0A1EF09F04DEF71
:101340000AF043C0D9FF44C0DAFFDE2A000EDD22D6
:10135000000E0001636F000E626F62C066F063C032
:1013600067F06469656943C0D9FF44C0DAFFDECF26
:10137000F6FFDDCFF7FF0800F550640AD8B4C3EFDD
:1013800009F0C5EF09F0D7EF09F043C0D9FF44C019
:10139000DAFFDECFF6FFDDCFF7FF0800F550690A70
:1013A000D8A4D5EF09F0D7EF09F017EF0AF043C042
:1013B000D9FF44C0DAFFDE2A000EDD2245C0D9FF86
:1013C00046C0DAFFDFCF47F0020EDE26DFCF48F05F
:1013D000000EDD2247C0D9FF48C0DAFFDECF49F05A
:1013E000DDCF4AF0000E4ABEFF0E4B6E4C6E4D6EC6
:1013F0004E6E4F6E506E41C01DF042C01EF049C08F
:101400001FF04AC020F04BC021F04CC022F04DC06C
:1014100023F04EC024F04FC025F050C026F01EEC43
:1014200008F01DC041F01EC042F068EF0AF043C052
:10143000D9FF44C0DAFFDECFF6FFDDCFF7FF0800AB
:10144000F550250AD8A427EF0AF029EF0AF040EF5B
:101450000AF043C0D9FF44C0DAFFDE2A000EDD22C5
:10146000000E036E250E026E41C004F042C005F06E
:1014700006EC0EF0000E426E010E416E68EF0AF0AF
:1014800043C0D9FF44C0DAFFDE2A000EDD22000E81
:10149000426E000E416E68EF0AF043C0D9FF44C0AF
:1014A000DAFFDECFF6FFDDCFF7FF0800F550026E62
:1014B000036A41C004F042C005F006EC0EF043C0E0
:1014C000D9FF44C0DAFFDE2A000EDD223AEF0AF02F
:1014D0001200000E126E10BE72EF0AF070EF0AF0EA
:1014E00084EF0AF0101E0F1E0E1E0D1E0C1E0B1E8A
:1014F0000A1E096C000E0A220B220C220D220E225B
:101500000F221022010E126E08BE8BEF0AF089EF37
:101510000AF09DEF0AF0081E071E061E051E041E97
:10152000031E021E016C000E022203220422052269
:10153000062207220822010E121A20EE13F0070ECF
:10154000DE6AE806FDE209500A100B100C100D10BF
:101550000E100F101010D8B4B0EF0AF0B2EF0AF06E
:1015600004EF0BF0010E116EC0EF0AF0D8900936AF
:101570000A360B360C360D360E360F361036112A5B
:1015800010AEC5EF0AF0C7EF0AF0B6EF0AF0D89038
:1015900013361436153616361736183619361A36E7
:1015A0000950015C0A5002580B5003580C50045863
:1015B0000D5005580E5006580F5007581050085837
:1015C000D8A0E5EF0AF0E7EF0AF0F8EF0AF00950CB
:1015D000015E0A50025A0B50035A0C50045A0D5027
:1015E000055A0E50065A0F50075A1050085A1380C9
:1015F000D89010320F320E320D320C320B320A32CA
:101600000932112EC7EF0AF01250D8B40AEF0BF0CE
:101610000CEF0BF01CEF0BF01A1E191E181E171EF4
:10162000161E151E141E136C000E142215221622EF
:101630001722182219221A2213C001F014C002F036
:1016400015C003F016C004F017C005F018C006F06E
:1016500019C007F01AC008F012008AEC0FF0010E52
:101660000001A56F000EA66F920E596E000E5A6E05
:10167000120E5B6E100E5C6EEFEC0FF0920E026EAF
:10168000000E036E010ECEEC0EF0920E596E000E9F
:101690005A6E010E5B6E100E5C6EEFEC0FF0640E76
:1016A0000001A619D8A457EF0BF059EF0BF09AEFF1
:1016B0000BF0A551D8B45FEF0BF061EF0BF09AEF90
:1016C0000BF0000EA66F0A0E5F6EA7C001F0A8C057
:1016D00002F0A9C003F0AAC004F0E40E056E0C0EDF
:1016E000066E000E076E000E086E55EC0FF05F667A
:1016F0007CEF0BF084EF0BF004340432033202323F
:1017000001325F2E77EF0BF001C0A7F002C0A8F006
:1017100003C0A9F004C0AAF0230E596E100E5A6E31
:10172000A7C05BF0A8C05CF0A9C05DF0AAC05EF0E5
:1017300090EC10F0010E92EC0CF0056E020E23EC12
:101740000DF0020E92EC0CF0056E030E23EC0DF082
:10175000010E17EC0FF001C0A7F002C0A8F00001C5
:10176000000EA8BFFF0EA96FAA6F020E17EC0FF0B4
:1017700001C0A3F002C0A4F0920E596E000E5A6E82
:10178000320E5B6E100E5C6EA3C05DF0A4C05EF006
:10179000EFEC0FF0920E026E000E036E020ECEEC16
:1017A0000EF080A6D6EF0BF0D8EF0BF0DAEF0BF0CF
:1017B00075EC10F00001A62B4FEF0BF000EF00F0DE
:1017C000000E126E08BEE9EF0BF0E7EF0BF0FBEF37
:1017D0000BF0081E071E061E051E041E031E021E19
:1017E000016C000E02220322042205220622072297
:1017F0000822010E126E10BE02EF0CF000EF0CF08A
:1018000012EF0CF0101E0F1E0E1E0D1E0C1E0B1ED6
:101810000A1E096C000E0A220B220C220D220E2237
:101820000F22102209500A100B100C100D100E1070
:101830000F101010D8B41FEF0CF021EF0CF069EF6F
:101840000CF0010E116E2FEF0CF0D89009360A360D
:101850000B360C360D360E360F361036112A10AEFA
:1018600034EF0CF036EF0CF025EF0CF00950015C72
:101870000A5002580B5003580C5004580D5005588C
:101880000E5006580F50075810500858D8A04BEF6C
:101890000CF04DEF0CF05DEF0CF00950015E0A50BA
:1018A000025A0B50035A0C50045A0D50055A0E5050
:1018B000065A0F50075A1050085AD89010320F325B
:1018C0000E320D320C320B320A320932112E36EF43
:1018D0000CF01250D8B46FEF0CF071EF0CF081EFF8
:1018E0000CF0081E071E061E051E041E031E021E07
:1018F000016C000E02220322042205220622072286
:10190000082201C001F002C002F003C003F004C0CD
:1019100004F005C005F006C006F007C007F008C0D7
:1019200008F01200036EADEF0CF0000E82B0010E55
:10193000046ECAEF0CF0000E80B8010E046ECAEF00
:101940000CF0000E80B6010E046ECAEF0CF0000E13
:1019500080B4010E046ECAEF0CF00350016E026AEF
:101960000250000AD8B4B7EF0CF0CAEF0CF00150E7
:10197000010AD8B495EF0CF0030AD8B49BEF0CF031
:10198000010AD8B4A1EF0CF0070AD8B4A7EF0CF005
:10199000CAEF0CF01A0E016EF80EE82EFED7012EDB
:1019A000FCD700D004EF0DF082B0D9EF0CF0DCEFE3
:1019B0000CF0010EDDEF0CF0000E041621EF0DF01F
:1019C00080B8E5EF0CF0E8EF0CF0010EE9EF0CF059
:1019D000000E041621EF0DF080B6F1EF0CF0F4EFDD
:1019E0000CF0010EF5EF0CF0000E041621EF0DF0D7
:1019F00080B4FDEF0CF000EF0DF0010E01EF0DF0E3
:101A0000000E041621EF0DF00350016E026A025021
:101A1000000AD8B40EEF0DF021EF0DF00150010ACD
:101A2000D8B4D4EF0CF0030AD8B4E0EF0CF0010AFC
:101A3000D8B4ECEF0CF0070AD8B4F8EF0CF021EFB3
:101A40000DF004501200086E0550D8B42AEF0DF0C6
:101A50002DEF0DF0010E2EEF0DF0000E056E73EF61
:101A60000DF005B036EF0DF039EF0DF08C843AEF44
:101A70000DF08C9498EF0DF005B041EF0DF044EFB0
:101A80000DF08C8645EF0DF08C9698EF0DF005B0BB
:101A90004CEF0DF04FEF0DF08B8850EF0DF08B9861
:101AA00098EF0DF005B057EF0DF05AEF0DF08C8860
:101AB0005BEF0DF08C9898EF0DF005B062EF0DF034
:101AC00065EF0DF08C8A66EF0DF08C9A98EF0DF0B3
:101AD00005B06DEF0DF070EF0DF08C8C71EF0DF027
:101AE0008C9C98EF0DF00850066E076A0750000AAC
:101AF000D8B47DEF0DF098EF0DF00650010AD8B480
:101B000031EF0DF0030AD8B43CEF0DF0010AD8B460
:101B100047EF0DF0070AD8B452EF0DF0010AD8B420
:101B20005DEF0DF0030AD8B468EF0DF098EF0DF0FB
:101B300012000F013B913B93958095829290898092
:101B40006C50F00B08096C6E130E6E6E6C8A340EBE
:101B5000026EF20EE82EFED7022EFCD76B806BB021
:101B6000B4EF0DF0B6EF0DF0AFEF0DF0A49E7C0ECC
:101B7000A4EC10F0800EA4EC10F0380EA4EC10F0E1
:101B8000800EA4EC10F0390EA4EC10F0800EA4EC42
:101B900010F0170EA4EC10F0800EA4EC10F07A0EEA
:101BA000A4EC10F0800EA4EC10F05E0EA4EC10F08B
:101BB000800EA4EC10F06B0EA4EC10F0800EA4ECE0
:101BC00010F00C0EA4EC10F0800EA4EC10F0010E3E
:101BD000A4EC10F0800EA4EC10F0060EA4EC10F0B3
:101BE000800EA4EC10F0020EA4EC10F06B846BB429
:101BF000FCEF0DF0FEEF0DF0F7EF0DF0340E026E7E
:101C0000F20EE82EFED7022EFCD71200045005106B
:101C1000D8B40DEF0EF00FEF0EF018EF0EF00450E9
:101C20000510D8A416EF0EF018EF0EF01DEF0EF011
:101C30000250C2EC10F06AEF0EF020EE04F00450F7
:101C4000D9260550DA22DE50DE10D8B42AEF0EF085
:101C50002CEF0EF047EF0EF020EE04F00450D926E2
:101C60000550DA2210EE02F00450E1260550E2227F
:101C7000DE50E65CE650800A0A6EDE50800A0A58A2
:101C8000D8B045EF0EF047EF0EF06AEF0EF020EE01
:101C900002F00450D9260550DA22DECF06F0DDCF5F
:101CA00007F004C0D9FF05C0DAFFDECF08F0DDCFB2
:101CB00009F006500824D96E07500920DA6E02C0D8
:101CC000DFFF20EE02F00450D9260550DA22DE2A8A
:101CD000000EDD221200000166A171EF0EF073EF1D
:101CE0000EF07DEF0EF014C00BF015C00CF012C01A
:101CF0000DF013C00EF018EC10F017BE82EF0EF0CE
:101D000084EF0EF08AEF0EF016C01BF017C01CF027
:101D10008EEF0EF0000E1C6E000E1B6E000E1A6E83
:101D2000000E196EA0EF0EF0000E036E200E026E74
:101D300012C004F013C005F006EC0EF0194A1A2A7E
:101D40001B50195C1A50800A186E1C50800A1858D3
:101D5000D8A0ADEF0EF0AFEF0EF094EF0EF0000153
:101D600066B1B5EF0EF0B7EF0EF0C1EF0EF014C094
:101D70000BF015C00CF012C00DF013C00EF018ECF3
:101D800010F014C001F015C002F05AEC10F01B5016
:101D90000124126E1C500220136E1200046E6B8020
:101DA0006BB0D5EF0EF0D7EF0EF0D0EF0EF0A49E93
:101DB0007C0EA4EC10F0800EA4EC10F00404D8A467
:101DC000E4EF0EF0E6EF0EF0EBEF0EF0800EA4EC79
:101DD00010F0F7EF0EF0020E0418D8A4F2EF0EF098
:101DE000F4EF0EF0F7EF0EF0C00EA4EC10F0400E82
:101DF000A4EC10F0000E056E05500224D96E000E02
:101E00000320DA6EDF50A4EC10F0052A0F0E0564F3
:101E10000CEF0FF00EEF0FF0FCEF0EF06B846BB4D5
:101E200014EF0FF016EF0FF00FEF0FF01200056E2A
:101E30002CEF0FF0C250830B1009C26E41EF0FF070
:101E4000C250830B1409C26E41EF0FF0000E026EF8
:101E5000000E016E54EF0FF00550036E046A04503B
:101E6000000AD8B436EF0FF026EF0FF00350010A46
:101E7000D8B41AEF0FF0030AD8B420EF0FF026EF12
:101E80000FF0C282C2B247EF0FF049EF0FF042EFFE
:101E90000FF0C350C4CF03F0046A03C004F0036A18
:101EA0000310016E0450026E1200000E096E000E47
:101EB0000A6E000E0B6E000E0C6E01A062EF0FF0AA
:101EC00064EF0FF06CEF0FF00550092606500A2260
:101ED00007500B2208500C22D890053606360736DC
:101EE0000836D89004320332023201320150021017
:101EF00003100410D8A47FEF0FF081EF0FF05DEF17
:101F00000FF009C001F00AC002F00BC003F00CC0D2
:101F100004F012009594959694989598959A959CAE
:101F20000F013B953B973A993A9F3B993B9B3B9DD1
:101F30008C848C868B888C888C8C8C8A94809288FC
:101F400092869284948C948E38973895928A968053
:101F5000928A9680C280000EC16EC0503509C06E54
:101F6000C08EC050F80B0509C06EC280330EAF6E34
:101F7000AC8AAB88AB8E99EC0DF0120053C057F0D1
:101F800054C058F0000E0001616F000E606FDCEF6E
:101F90000FF051C041F052C042F0570E436E000E98
:101FA000446E55C045F056C046F08FEC09F04150E4
:101FB000000160274250612357C0F6FF58C0F7FF69
:101FC0000800F5500009D8A4E8EF0FF0EAEF0FF091
:101FD000C9EF0FF060C051F061C052F012005D0E09
:101FE00000018A6F000E8B6F59C08CF05AC08DF0C3
:101FF000000E8F6F000E8E6F000E916F000E906FAF
:102000008C0E516E000E526E5BC053F05CC054F0EB
:102010008A0E556E000E566EBEEC0FF000018E510A
:102020005924D96E8F515A20DA6E000EDF6E1200DD
:10203000000E116E000E106E29EF10F00FC002F0AE
:10204000036A0DC004F00EC005F006EC0EF0104A55
:10205000112A10500B24D96E11500C20DA6EDF506B
:102060000F6E0F50D8A437EF10F039EF10F01EEFBD
:1020700010F0120014BE47EF10F0145006E11304E4
:10208000D8B045EF10F047EF10F055EF10F013C047
:1020900015F014C016F0151E161E154A162A15C086
:1020A00013F016C014F059EF10F013C013F014C061
:1020B00014F0120001C003F002C004F062EF10F04F
:1020C000014A022A01C0D9FF02C0DAFFDF50D8A4BA
:1020D0006CEF10F06EEF10F060EF10F00350015C49
:1020E000016E04500258026E12006B806BB07BEFE1
:1020F00010F07DEF10F076EF10F0A49E7C0EA4ECB3
:1021000010F0800EA4EC10F0010EA4EC10F06B8423
:102110006BB48DEF10F08FEF10F088EF10F012001D
:102120005B0E00018A6F000E8B6F000E516E000E69
:10213000526E59C053F05AC054F08A0E556E000EBC
:10214000566EBEEC0FF01200016E01C06FFF6DB055
:10215000ACEF10F0AEEF10F0A7EF10F0A4AEB3EFBD
:1021600010F0B5EF10F0AEEF10F0A49E120000EEEC
:1021700060F0280EEE6AE806FDE1000EF86E000140
:102180002DEF0BF0016E9EA8C8EF10F0CAEF10F013
:0A219000C3EF10F001C0ADFF120014
:020000040020DA
:08000000FFFFFFFFFFFFFFFF00
:020000040030CA
:0E000000FF331F3CFFBF85FF0FC00FE00F4016
:00000001FF
